:100000000C9435000C945D000C945D000C945D0024
:100010000C945D000C945D000C945D000C945D00EC
:100020000C945D000C945D000C945D000C945D00DC
:100030000C945D000C945D000C945D000C945D00CC
:100040000C945D000C945D000C9488010C9462018A
:100050000C945D000C945D000C945D000C945D00AC
:100060000C945D000C945D00BA0111241FBECFEF0B
:10007000D8E0DEBFCDBF11E0A0E0B1E0E8E0F6E0FF
:1000800002C005900D92A236B107D9F721E0A2E691
:10009000B1E001C01D92AF3FB207E1F710E0C5E348
:1000A000D0E004C02197FE010E94EA02C433D107C8
:1000B000C9F70E94E7010C9402030C940000AF9270
:1000C000BF92CF92DF92EF92FF920F931F93CF9345
:1000D000DF936C017B018B01040F151FEB015E01A7
:1000E000AE18BF08C017D10759F06991D601ED913C
:1000F000FC910190F081E02DC6010995892B79F7DB
:10010000C501DF91CF911F910F91FF90EF90DF908C
:10011000CF90BF90AF900895FC01538D448D252F53
:1001200030E0842F90E0821B930B541710F0CF9691
:10013000089501970895FC01918D828D981761F0C3
:10014000A28DAE0FBF2FB11D5D968C91928D9F5FDA
:100150009F73928F90E008958FEF9FEF0895FC01B9
:10016000918D828D981731F0828DE80FF11D858D6C
:1001700090E008958FEF9FEF0895FC01918D228DFF
:10018000892F90E0805C9F4F821B91098F73992784
:100190000895FC01A48DA80FB92FB11DA35ABF4F1C
:1001A0002C91848D90E001968F739927848FA68976
:1001B000B7892C93A089B1898C91837080648C93CA
:1001C000938D848D981306C00288F389E02D808179
:1001D0008F7D80830895EF92FF920F931F93CF93AB
:1001E000DF93EC0181E0888F9B8D8C8D98131AC072
:1001F000E889F989808185FF15C09FB7F894EE8959
:10020000FF896083E889F9898081837080648083B5
:100210009FBF81E090E0DF91CF911F910F91FF9000
:10022000EF900895F62E0B8D10E00F5F1F4F0F73A8
:100230001127E02E8C8D8E110CC00FB607FCFACF63
:10024000E889F989808185FFF5CFCE010E94C90038
:10025000F1CFEB8DEC0FFD2FF11DE35AFF4FF08234
:100260009FB7F8940B8FEA89FB8980818062CFCF9A
:10027000CF93DF93EC01888D8823B9F0AA89BB89DD
:10028000E889F9898C9185FD03C0808186FD0DC0C8
:100290000FB607FCF7CF8C9185FFF2CF808185FFE9
:1002A000EDCFCE010E94C900E9CFDF91CF91089533
:1002B0008093BB0084E88093BC008091BC0087FFE2
:1002C000FCCF08951F920F920FB60F9211242F9317
:1002D0003F934F935F936F937F938F939F93AF93CE
:1002E000BF93EF93FF9382E691E00E94C900FF91D4
:1002F000EF91BF91AF919F918F917F916F915F919E
:100300004F913F912F910F900FBE0F901F90189516
:100310001F920F920FB60F9211242F938F939F93DA
:10032000EF93FF93E0917201F09173018081E0916E
:100330007801F091790182FD1BC0908180917B0151
:100340008F5F8F7320917C01821741F0E0917B01D8
:10035000F0E0EE59FE4F958F80937B01FF91EF9176
:100360009F918F912F910F900FBE0F901F90189516
:100370008081F4CFE2E6F1E01382128288EE93E00E
:10038000A0E0B0E084839583A683B78384E091E006
:100390009183808385EC90E09587848784EC90E05E
:1003A0009787868780EC90E0918B808B81EC90E042
:1003B000938B828B82EC90E0958B848B86EC90E023
:1003C000978B868B118E128E138E148E0895CF9379
:1003D000DF93CDB7DEB7C55BD1090FB6F894DEBFAA
:1003E0000FBECDBF8EE1E5E1F1E0DE01A857BF4FC2
:1003F00001900D928A95E1F783E2E3E3F1E0DE01FB
:10040000AB59BF4F01900D928A95E1F78CE0E6E57C
:10041000F1E0DE01AA55BF4F01900D928A95E1F7F8
:1004200084E08AB91092B90098E99093B80080935B
:10043000BC00E0917201F091730182E08083E09151
:100440006E01F0916F011082E0917001F0917101E5
:100450008FEC808310927A01E0917601F091770120
:1004600086E08083E0917401F09175018081806164
:100470008083E0917401F0917501808188608083B0
:10048000E0917401F0917501808180688083E09132
:100490007401F091750180818F7D808384EAE82E5C
:1004A00094E8D92E24E9C22E8E010F5F1F4FE092EF
:1004B000BC008091BC0087FFFCCF8AE90E945801F4
:1004C00080E00E945801E092BC008091BC0087FF50
:1004D000FCCF8BE90E945801D092BC008091BC00F7
:1004E00087FFFCCFF090BB00C092BC0081E38F156A
:1004F000BCF55A9ABE016B597F4FC8010E94FB029E
:100500004AE0BE016E547F4F8F2DFF0C990B0E9465
:10051000B502BE016E547F4FC8010E94F002BE01B9
:100520006A557F4FC8010E94F002F8010190002037
:10053000E9F73197AF01401B510BB80182E691E01A
:100540000E945F0042E050E062E171E082E691E0EB
:100550000E945F0064E171E0C8010E94FB02A7CF26
:100560005A98BE0168577F4FC8CFBB274A3031F435
:10057000992322F4BDE2909581959F4F0C94C1027E
:10058000BB27FB015527AA27880F991FAA1FA4176D
:1005900010F0A41B83955051B9F7A05DAA3308F061
:1005A000A95DA193009779F7B111B1931192CB0195
:1005B0000C94DA02DC01FC01672F71917723E1F7DB
:1005C000329704C07C916D9370836291AE17BF0720
:1005D000C8F30895EE0FFF1F0590F491E02D0994E4
:1005E000FB01DC010D900020E9F7119701900D92BD
:1005F0000020E1F70895FB01DC0101900D9200203D
:08060000E1F70895F894FFCF23
:1006080000000000EB005F008C003801BD009B007B
:10061800AF000D0A00526F6F6D2069732073616619
:10062800652E2054656D70657261747572652069F8
:10063800732000526F6F6D206973206F6E2066699A
:1006480072652121212054656D706572617475721F
:1006580065206973200020646567726565732043AF
:020668002E0062
:00000001FF
